{
  "address": "0x1f17D3154E3327f48eDBcfE025e47A04078Ee42d",
  "abi": [
    {
      "inputs": [
        {
          "internalType": "contract IVault",
          "name": "vault",
          "type": "address"
        },
        {
          "internalType": "string",
          "name": "name",
          "type": "string"
        },
        {
          "internalType": "string",
          "name": "symbol",
          "type": "string"
        },
        {
          "internalType": "contract IERC20[]",
          "name": "tokens",
          "type": "address[]"
        },
        {
          "internalType": "uint256[]",
          "name": "normalizedWeights",
          "type": "uint256[]"
        },
        {
          "internalType": "uint256",
          "name": "swapFeePercentage",
          "type": "uint256"
        },
        {
          "internalType": "uint256",
          "name": "pauseWindowDuration",
          "type": "uint256"
        },
        {
          "internalType": "uint256",
          "name": "bufferPeriodDuration",
          "type": "uint256"
        },
        {
          "internalType": "address",
          "name": "owner",
          "type": "address"
        },
        {
          "internalType": "bool",
          "name": "swapEnabledOnStart",
          "type": "bool"
        }
      ],
      "stateMutability": "nonpayable",
      "type": "constructor"
    },
    {
      "anonymous": false,
      "inputs": [
        {
          "indexed": true,
          "internalType": "address",
          "name": "owner",
          "type": "address"
        },
        {
          "indexed": true,
          "internalType": "address",
          "name": "spender",
          "type": "address"
        },
        {
          "indexed": false,
          "internalType": "uint256",
          "name": "value",
          "type": "uint256"
        }
      ],
      "name": "Approval",
      "type": "event"
    },
    {
      "anonymous": false,
      "inputs": [
        {
          "indexed": false,
          "internalType": "uint256",
          "name": "startTime",
          "type": "uint256"
        },
        {
          "indexed": false,
          "internalType": "uint256",
          "name": "endTime",
          "type": "uint256"
        },
        {
          "indexed": false,
          "internalType": "uint256[]",
          "name": "startWeights",
          "type": "uint256[]"
        },
        {
          "indexed": false,
          "internalType": "uint256[]",
          "name": "endWeights",
          "type": "uint256[]"
        }
      ],
      "name": "GradualWeightUpdateScheduled",
      "type": "event"
    },
    {
      "anonymous": false,
      "inputs": [
        {
          "indexed": false,
          "internalType": "bool",
          "name": "paused",
          "type": "bool"
        }
      ],
      "name": "PausedStateChanged",
      "type": "event"
    },
    {
      "anonymous": false,
      "inputs": [
        {
          "indexed": false,
          "internalType": "bool",
          "name": "enabled",
          "type": "bool"
        }
      ],
      "name": "RecoveryModeStateChanged",
      "type": "event"
    },
    {
      "anonymous": false,
      "inputs": [
        {
          "indexed": false,
          "internalType": "bool",
          "name": "swapEnabled",
          "type": "bool"
        }
      ],
      "name": "SwapEnabledSet",
      "type": "event"
    },
    {
      "anonymous": false,
      "inputs": [
        {
          "indexed": false,
          "internalType": "uint256",
          "name": "swapFeePercentage",
          "type": "uint256"
        }
      ],
      "name": "SwapFeePercentageChanged",
      "type": "event"
    },
    {
      "anonymous": false,
      "inputs": [
        {
          "indexed": true,
          "internalType": "address",
          "name": "from",
          "type": "address"
        },
        {
          "indexed": true,
          "internalType": "address",
          "name": "to",
          "type": "address"
        },
        {
          "indexed": false,
          "internalType": "uint256",
          "name": "value",
          "type": "uint256"
        }
      ],
      "name": "Transfer",
      "type": "event"
    },
    {
      "inputs": [],
      "name": "DOMAIN_SEPARATOR",
      "outputs": [
        {
          "internalType": "bytes32",
          "name": "",
          "type": "bytes32"
        }
      ],
      "stateMutability": "view",
      "type": "function"
    },
    {
      "inputs": [
        {
          "internalType": "address",
          "name": "owner",
          "type": "address"
        },
        {
          "internalType": "address",
          "name": "spender",
          "type": "address"
        }
      ],
      "name": "allowance",
      "outputs": [
        {
          "internalType": "uint256",
          "name": "",
          "type": "uint256"
        }
      ],
      "stateMutability": "view",
      "type": "function"
    },
    {
      "inputs": [
        {
          "internalType": "address",
          "name": "spender",
          "type": "address"
        },
        {
          "internalType": "uint256",
          "name": "amount",
          "type": "uint256"
        }
      ],
      "name": "approve",
      "outputs": [
        {
          "internalType": "bool",
          "name": "",
          "type": "bool"
        }
      ],
      "stateMutability": "nonpayable",
      "type": "function"
    },
    {
      "inputs": [
        {
          "internalType": "address",
          "name": "account",
          "type": "address"
        }
      ],
      "name": "balanceOf",
      "outputs": [
        {
          "internalType": "uint256",
          "name": "",
          "type": "uint256"
        }
      ],
      "stateMutability": "view",
      "type": "function"
    },
    {
      "inputs": [],
      "name": "decimals",
      "outputs": [
        {
          "internalType": "uint8",
          "name": "",
          "type": "uint8"
        }
      ],
      "stateMutability": "view",
      "type": "function"
    },
    {
      "inputs": [
        {
          "internalType": "address",
          "name": "spender",
          "type": "address"
        },
        {
          "internalType": "uint256",
          "name": "amount",
          "type": "uint256"
        }
      ],
      "name": "decreaseAllowance",
      "outputs": [
        {
          "internalType": "bool",
          "name": "",
          "type": "bool"
        }
      ],
      "stateMutability": "nonpayable",
      "type": "function"
    },
    {
      "inputs": [],
      "name": "disableRecoveryMode",
      "outputs": [],
      "stateMutability": "nonpayable",
      "type": "function"
    },
    {
      "inputs": [],
      "name": "enableRecoveryMode",
      "outputs": [],
      "stateMutability": "nonpayable",
      "type": "function"
    },
    {
      "inputs": [
        {
          "internalType": "bytes4",
          "name": "selector",
          "type": "bytes4"
        }
      ],
      "name": "getActionId",
      "outputs": [
        {
          "internalType": "bytes32",
          "name": "",
          "type": "bytes32"
        }
      ],
      "stateMutability": "view",
      "type": "function"
    },
    {
      "inputs": [],
      "name": "getAuthorizer",
      "outputs": [
        {
          "internalType": "contract IAuthorizer",
          "name": "",
          "type": "address"
        }
      ],
      "stateMutability": "view",
      "type": "function"
    },
    {
      "inputs": [],
      "name": "getDomainSeparator",
      "outputs": [
        {
          "internalType": "bytes32",
          "name": "",
          "type": "bytes32"
        }
      ],
      "stateMutability": "view",
      "type": "function"
    },
    {
      "inputs": [],
      "name": "getGradualWeightUpdateParams",
      "outputs": [
        {
          "internalType": "uint256",
          "name": "startTime",
          "type": "uint256"
        },
        {
          "internalType": "uint256",
          "name": "endTime",
          "type": "uint256"
        },
        {
          "internalType": "uint256[]",
          "name": "endWeights",
          "type": "uint256[]"
        }
      ],
      "stateMutability": "view",
      "type": "function"
    },
    {
      "inputs": [
        {
          "internalType": "address",
          "name": "account",
          "type": "address"
        }
      ],
      "name": "getNextNonce",
      "outputs": [
        {
          "internalType": "uint256",
          "name": "",
          "type": "uint256"
        }
      ],
      "stateMutability": "view",
      "type": "function"
    },
    {
      "inputs": [],
      "name": "getNormalizedWeights",
      "outputs": [
        {
          "internalType": "uint256[]",
          "name": "",
          "type": "uint256[]"
        }
      ],
      "stateMutability": "view",
      "type": "function"
    },
    {
      "inputs": [],
      "name": "getOwner",
      "outputs": [
        {
          "internalType": "address",
          "name": "",
          "type": "address"
        }
      ],
      "stateMutability": "view",
      "type": "function"
    },
    {
      "inputs": [],
      "name": "getPausedState",
      "outputs": [
        {
          "internalType": "bool",
          "name": "paused",
          "type": "bool"
        },
        {
          "internalType": "uint256",
          "name": "pauseWindowEndTime",
          "type": "uint256"
        },
        {
          "internalType": "uint256",
          "name": "bufferPeriodEndTime",
          "type": "uint256"
        }
      ],
      "stateMutability": "view",
      "type": "function"
    },
    {
      "inputs": [],
      "name": "getPoolId",
      "outputs": [
        {
          "internalType": "bytes32",
          "name": "",
          "type": "bytes32"
        }
      ],
      "stateMutability": "view",
      "type": "function"
    },
    {
      "inputs": [],
      "name": "getProtocolFeesCollector",
      "outputs": [
        {
          "internalType": "contract IProtocolFeesCollector",
          "name": "",
          "type": "address"
        }
      ],
      "stateMutability": "view",
      "type": "function"
    },
    {
      "inputs": [],
      "name": "getScalingFactors",
      "outputs": [
        {
          "internalType": "uint256[]",
          "name": "",
          "type": "uint256[]"
        }
      ],
      "stateMutability": "view",
      "type": "function"
    },
    {
      "inputs": [],
      "name": "getSwapEnabled",
      "outputs": [
        {
          "internalType": "bool",
          "name": "",
          "type": "bool"
        }
      ],
      "stateMutability": "view",
      "type": "function"
    },
    {
      "inputs": [],
      "name": "getSwapFeePercentage",
      "outputs": [
        {
          "internalType": "uint256",
          "name": "",
          "type": "uint256"
        }
      ],
      "stateMutability": "view",
      "type": "function"
    },
    {
      "inputs": [],
      "name": "getVault",
      "outputs": [
        {
          "internalType": "contract IVault",
          "name": "",
          "type": "address"
        }
      ],
      "stateMutability": "view",
      "type": "function"
    },
    {
      "inputs": [],
      "name": "inRecoveryMode",
      "outputs": [
        {
          "internalType": "bool",
          "name": "",
          "type": "bool"
        }
      ],
      "stateMutability": "view",
      "type": "function"
    },
    {
      "inputs": [
        {
          "internalType": "address",
          "name": "spender",
          "type": "address"
        },
        {
          "internalType": "uint256",
          "name": "addedValue",
          "type": "uint256"
        }
      ],
      "name": "increaseAllowance",
      "outputs": [
        {
          "internalType": "bool",
          "name": "",
          "type": "bool"
        }
      ],
      "stateMutability": "nonpayable",
      "type": "function"
    },
    {
      "inputs": [],
      "name": "name",
      "outputs": [
        {
          "internalType": "string",
          "name": "",
          "type": "string"
        }
      ],
      "stateMutability": "view",
      "type": "function"
    },
    {
      "inputs": [
        {
          "internalType": "address",
          "name": "owner",
          "type": "address"
        }
      ],
      "name": "nonces",
      "outputs": [
        {
          "internalType": "uint256",
          "name": "",
          "type": "uint256"
        }
      ],
      "stateMutability": "view",
      "type": "function"
    },
    {
      "inputs": [
        {
          "internalType": "bytes32",
          "name": "poolId",
          "type": "bytes32"
        },
        {
          "internalType": "address",
          "name": "sender",
          "type": "address"
        },
        {
          "internalType": "address",
          "name": "",
          "type": "address"
        },
        {
          "internalType": "uint256[]",
          "name": "balances",
          "type": "uint256[]"
        },
        {
          "internalType": "uint256",
          "name": "",
          "type": "uint256"
        },
        {
          "internalType": "uint256",
          "name": "",
          "type": "uint256"
        },
        {
          "internalType": "bytes",
          "name": "userData",
          "type": "bytes"
        }
      ],
      "name": "onExitPool",
      "outputs": [
        {
          "internalType": "uint256[]",
          "name": "amountsOut",
          "type": "uint256[]"
        },
        {
          "internalType": "uint256[]",
          "name": "dueProtocolFees",
          "type": "uint256[]"
        }
      ],
      "stateMutability": "nonpayable",
      "type": "function"
    },
    {
      "inputs": [
        {
          "internalType": "bytes32",
          "name": "poolId",
          "type": "bytes32"
        },
        {
          "internalType": "address",
          "name": "sender",
          "type": "address"
        },
        {
          "internalType": "address",
          "name": "recipient",
          "type": "address"
        },
        {
          "internalType": "uint256[]",
          "name": "balances",
          "type": "uint256[]"
        },
        {
          "internalType": "uint256",
          "name": "",
          "type": "uint256"
        },
        {
          "internalType": "uint256",
          "name": "",
          "type": "uint256"
        },
        {
          "internalType": "bytes",
          "name": "userData",
          "type": "bytes"
        }
      ],
      "name": "onJoinPool",
      "outputs": [
        {
          "internalType": "uint256[]",
          "name": "amountsIn",
          "type": "uint256[]"
        },
        {
          "internalType": "uint256[]",
          "name": "dueProtocolFees",
          "type": "uint256[]"
        }
      ],
      "stateMutability": "nonpayable",
      "type": "function"
    },
    {
      "inputs": [
        {
          "components": [
            {
              "internalType": "enum IVault.SwapKind",
              "name": "kind",
              "type": "uint8"
            },
            {
              "internalType": "contract IERC20",
              "name": "tokenIn",
              "type": "address"
            },
            {
              "internalType": "contract IERC20",
              "name": "tokenOut",
              "type": "address"
            },
            {
              "internalType": "uint256",
              "name": "amount",
              "type": "uint256"
            },
            {
              "internalType": "bytes32",
              "name": "poolId",
              "type": "bytes32"
            },
            {
              "internalType": "uint256",
              "name": "lastChangeBlock",
              "type": "uint256"
            },
            {
              "internalType": "address",
              "name": "from",
              "type": "address"
            },
            {
              "internalType": "address",
              "name": "to",
              "type": "address"
            },
            {
              "internalType": "bytes",
              "name": "userData",
              "type": "bytes"
            }
          ],
          "internalType": "struct IPoolSwapStructs.SwapRequest",
          "name": "request",
          "type": "tuple"
        },
        {
          "internalType": "uint256[]",
          "name": "balances",
          "type": "uint256[]"
        },
        {
          "internalType": "uint256",
          "name": "indexIn",
          "type": "uint256"
        },
        {
          "internalType": "uint256",
          "name": "indexOut",
          "type": "uint256"
        }
      ],
      "name": "onSwap",
      "outputs": [
        {
          "internalType": "uint256",
          "name": "",
          "type": "uint256"
        }
      ],
      "stateMutability": "nonpayable",
      "type": "function"
    },
    {
      "inputs": [
        {
          "components": [
            {
              "internalType": "enum IVault.SwapKind",
              "name": "kind",
              "type": "uint8"
            },
            {
              "internalType": "contract IERC20",
              "name": "tokenIn",
              "type": "address"
            },
            {
              "internalType": "contract IERC20",
              "name": "tokenOut",
              "type": "address"
            },
            {
              "internalType": "uint256",
              "name": "amount",
              "type": "uint256"
            },
            {
              "internalType": "bytes32",
              "name": "poolId",
              "type": "bytes32"
            },
            {
              "internalType": "uint256",
              "name": "lastChangeBlock",
              "type": "uint256"
            },
            {
              "internalType": "address",
              "name": "from",
              "type": "address"
            },
            {
              "internalType": "address",
              "name": "to",
              "type": "address"
            },
            {
              "internalType": "bytes",
              "name": "userData",
              "type": "bytes"
            }
          ],
          "internalType": "struct IPoolSwapStructs.SwapRequest",
          "name": "request",
          "type": "tuple"
        },
        {
          "internalType": "uint256",
          "name": "balanceTokenIn",
          "type": "uint256"
        },
        {
          "internalType": "uint256",
          "name": "balanceTokenOut",
          "type": "uint256"
        }
      ],
      "name": "onSwap",
      "outputs": [
        {
          "internalType": "uint256",
          "name": "",
          "type": "uint256"
        }
      ],
      "stateMutability": "nonpayable",
      "type": "function"
    },
    {
      "inputs": [],
      "name": "pause",
      "outputs": [],
      "stateMutability": "nonpayable",
      "type": "function"
    },
    {
      "inputs": [
        {
          "internalType": "address",
          "name": "owner",
          "type": "address"
        },
        {
          "internalType": "address",
          "name": "spender",
          "type": "address"
        },
        {
          "internalType": "uint256",
          "name": "value",
          "type": "uint256"
        },
        {
          "internalType": "uint256",
          "name": "deadline",
          "type": "uint256"
        },
        {
          "internalType": "uint8",
          "name": "v",
          "type": "uint8"
        },
        {
          "internalType": "bytes32",
          "name": "r",
          "type": "bytes32"
        },
        {
          "internalType": "bytes32",
          "name": "s",
          "type": "bytes32"
        }
      ],
      "name": "permit",
      "outputs": [],
      "stateMutability": "nonpayable",
      "type": "function"
    },
    {
      "inputs": [
        {
          "internalType": "bytes32",
          "name": "",
          "type": "bytes32"
        },
        {
          "internalType": "address",
          "name": "sender",
          "type": "address"
        },
        {
          "internalType": "address",
          "name": "",
          "type": "address"
        },
        {
          "internalType": "uint256[]",
          "name": "balances",
          "type": "uint256[]"
        },
        {
          "internalType": "uint256",
          "name": "",
          "type": "uint256"
        },
        {
          "internalType": "uint256",
          "name": "",
          "type": "uint256"
        },
        {
          "internalType": "bytes",
          "name": "userData",
          "type": "bytes"
        }
      ],
      "name": "queryExit",
      "outputs": [
        {
          "internalType": "uint256",
          "name": "bptIn",
          "type": "uint256"
        },
        {
          "internalType": "uint256[]",
          "name": "amountsOut",
          "type": "uint256[]"
        }
      ],
      "stateMutability": "view",
      "type": "function"
    },
    {
      "inputs": [
        {
          "internalType": "bytes32",
          "name": "",
          "type": "bytes32"
        },
        {
          "internalType": "address",
          "name": "sender",
          "type": "address"
        },
        {
          "internalType": "address",
          "name": "",
          "type": "address"
        },
        {
          "internalType": "uint256[]",
          "name": "balances",
          "type": "uint256[]"
        },
        {
          "internalType": "uint256",
          "name": "",
          "type": "uint256"
        },
        {
          "internalType": "uint256",
          "name": "",
          "type": "uint256"
        },
        {
          "internalType": "bytes",
          "name": "userData",
          "type": "bytes"
        }
      ],
      "name": "queryJoin",
      "outputs": [
        {
          "internalType": "uint256",
          "name": "bptOut",
          "type": "uint256"
        },
        {
          "internalType": "uint256[]",
          "name": "amountsIn",
          "type": "uint256[]"
        }
      ],
      "stateMutability": "view",
      "type": "function"
    },
    {
      "inputs": [
        {
          "internalType": "bool",
          "name": "swapEnabled",
          "type": "bool"
        }
      ],
      "name": "setSwapEnabled",
      "outputs": [],
      "stateMutability": "nonpayable",
      "type": "function"
    },
    {
      "inputs": [
        {
          "internalType": "uint256",
          "name": "swapFeePercentage",
          "type": "uint256"
        }
      ],
      "name": "setSwapFeePercentage",
      "outputs": [],
      "stateMutability": "nonpayable",
      "type": "function"
    },
    {
      "inputs": [],
      "name": "symbol",
      "outputs": [
        {
          "internalType": "string",
          "name": "",
          "type": "string"
        }
      ],
      "stateMutability": "view",
      "type": "function"
    },
    {
      "inputs": [],
      "name": "totalSupply",
      "outputs": [
        {
          "internalType": "uint256",
          "name": "",
          "type": "uint256"
        }
      ],
      "stateMutability": "view",
      "type": "function"
    },
    {
      "inputs": [
        {
          "internalType": "address",
          "name": "recipient",
          "type": "address"
        },
        {
          "internalType": "uint256",
          "name": "amount",
          "type": "uint256"
        }
      ],
      "name": "transfer",
      "outputs": [
        {
          "internalType": "bool",
          "name": "",
          "type": "bool"
        }
      ],
      "stateMutability": "nonpayable",
      "type": "function"
    },
    {
      "inputs": [
        {
          "internalType": "address",
          "name": "sender",
          "type": "address"
        },
        {
          "internalType": "address",
          "name": "recipient",
          "type": "address"
        },
        {
          "internalType": "uint256",
          "name": "amount",
          "type": "uint256"
        }
      ],
      "name": "transferFrom",
      "outputs": [
        {
          "internalType": "bool",
          "name": "",
          "type": "bool"
        }
      ],
      "stateMutability": "nonpayable",
      "type": "function"
    },
    {
      "inputs": [],
      "name": "unpause",
      "outputs": [],
      "stateMutability": "nonpayable",
      "type": "function"
    },
    {
      "inputs": [
        {
          "internalType": "uint256",
          "name": "startTime",
          "type": "uint256"
        },
        {
          "internalType": "uint256",
          "name": "endTime",
          "type": "uint256"
        },
        {
          "internalType": "uint256[]",
          "name": "endWeights",
          "type": "uint256[]"
        }
      ],
      "name": "updateWeightsGradually",
      "outputs": [],
      "stateMutability": "nonpayable",
      "type": "function"
    }
  ],
  "transactionHash": "0x1f95d1701eeba67495fc60a437a19b18d7297ee68dba9ade6a2a22b21faa98eb",
  "args": [
    "0x2D9e85088eCbb03FBA4f880274aD808663217092",
    "Tapioca LBP",
    "tLBP",
    [
      "0x31dA039c8Cf6eDC95fAFECb7B3E70a308128b7E0",
      "0xd428690148436dA9c7422698eEe15F51C8cec871"
    ],
    [
      "200000000000000000",
      "800000000000000000"
    ],
    "100000000000000",
    0,
    0,
    "0x40282d3Cf4890D9806BC1853e97a59C93D813653",
    false
  ],
  "numDeployments": 1,
  "solcInputHash": "96cde06c0c95f8bf13bcb2a8cc6b6151",
  "bytecode": "0x6103006040523480156200001257600080fd5b506040516200614f3803806200614f833981016040819052620000359162000e37565b89620000628b89516002146200004d57600162000050565b60025b8a6200043760201b62000f091760201c565b8a8a8a8a8a8a8a8a8a8a8a8a8a87878786838387878b86336001600160a01b031660001b8480604051806040016040528060018152602001603160f81b81525087878160039080519060200190620000bc92919062000bd0565b508051620000d290600490602084019062000bd0565b50506005805460ff19166012179055508151602092830120608052805191012060a052507f8b73c3c69bb8fe3d512ecc4cf759cc79239f7b179b0ffacaa9a75d522b39400f60c05260e0526001600160601b0319606091821b81166101005291901b166101205250620001519050630163f50083111561019462000492565b620001656276a70082111561019562000492565b4291909101610140819052016101605260601b6001600160601b031916610180526101a08690526040805163d2946c2b60e01b815290516001600160a01b0389169163d2946c2b916004808301926020929190829003018186803b158015620001cd57600080fd5b505afa158015620001e2573d6000803e3d6000fd5b505050506040513d601f19601f8201168201806040525081019062000208919062000e18565b6001600160a01b03166101c0816001600160a01b031660601b81525050505050505050506000875190506200024a818851620004a760201b62000f611760201c565b6200026260028951101560c86200049260201b60201c565b6200027a60048951111560c96200049260201b60201c565b6101e0819052875188906000906200028e57fe5b60200260200101516001600160a01b0316610200816001600160a01b031660601b8152505087600181518110620002c157fe5b60200260200101516001600160a01b0316610220816001600160a01b031660601b8152505060028111620002f75760006200030e565b876002815181106200030557fe5b60200260200101515b60601b6001600160601b03191661024052600381116200033057600062000347565b876003815181106200033e57fe5b60200260200101515b6001600160a01b0316610260816001600160a01b031660601b815250506200038a886000815181106200037657fe5b6020026020010151620004b660201b60201c565b610280528751620003a390899060019081106200037657fe5b6102a05260028111620003b8576000620003ca565b620003ca886002815181106200037657fe5b6102c05260038111620003df576000620003f1565b620003f1886003815181106200037657fe5b6102e052426200040481808a8062000562565b6200040f876200064c565b6200041a83620006bb565b5050505050505050505050505050505050505050505050620010fa565b60006200048a84848485516001600160401b03811180156200045857600080fd5b5060405190808252806020026020018201604052801562000483578160200160208202803683370190505b5062000709565b949350505050565b81620004a357620004a38162000738565b5050565b620004a3828214606762000492565b600080826001600160a01b031663313ce5676040518163ffffffff1660e01b815260040160206040518083038186803b158015620004f357600080fd5b505afa15801562000508573d6000803e3d6000fd5b505050506040513d601f19601f820116820180604052508101906200052e919062000f46565b60ff16905060006200054d6012836200074d60201b62000f721760201c565b600a0a670de0b6b3a764000002949350505050565b6000805b8251811015620005cd5760008382815181106200057f57fe5b60200260200101519050620005a7662386f26fc1000082101561012e6200049260201b60201c565b620005c181846200076a60201b62000f881790919060201c565b92505060010162000566565b50620005e6670de0b6b3a7640000821461013462000492565b62000602600954868686866200078560201b62000f9a1760201c565b6009556040517f0f3631f9dab08169d1db21c6dc5f32536fb2b0a6b9bb5330d71c52132f968be0906200063d90879087908790879062001051565b60405180910390a15050505050565b6200066164e8d4a5100082101560cb62000492565b6200067967016345785d8a000082111560ca62000492565b60088190556040517fa9ba3ffe0b6c366b81232caab38605a0699ad5398d6cce76f91ee809e322dafc90620006b090839062001048565b60405180910390a150565b620006d4600954826200085860201b620010381760201c565b6009556040517f5a9e84f78f7957cb4ed7478eb0fcad35ee4ecbe2e0f298420b28a3955392573f90620006b090839062000f9a565b600062000721836200087760201b620010451760201c565b6200072f8585858562000883565b95945050505050565b6200074a816210905360ea1b6200097d565b50565b60006200075f83831115600162000492565b508082035b92915050565b60008282016200077e848210158362000492565b9392505050565b6000620007be8460246020620007a88a8a6004846200104f620009de821b17811c565b620009de60201b6200104f17909392919060201c565b955060005b83518110156200084d5762000842620008006010858481518110620007e457fe5b602002602001015162000a0360201b620010721790919060201c565b8551601084810260c00191620007a8906200082590601f908b9089908110620007e457fe5b8c90601f88810260440190620009de602090811b6200104f17901c565b9650600101620007c3565b509495945050505050565b60006200077e8260008562000a1a60201b62001087179092919060201c565b80620004a38162000a29565b600080856001600160a01b03166309b2760f866040518263ffffffff1660e01b8152600401620008b4919062001033565b602060405180830381600087803b158015620008cf57600080fd5b505af1158015620008e4573d6000803e3d6000fd5b505050506040513d601f19601f820116820180604052508101906200090a919062000dff565b604051633354e3e960e11b81529091506001600160a01b038716906366a9c7d2906200093f9084908890889060040162000fa5565b600060405180830381600087803b1580156200095a57600080fd5b505af11580156200096f573d6000803e3d6000fd5b509298975050505050505050565b62461bcd60e51b600090815260206004526007602452600a808404818106603090810160081b958390069590950190829004918206850160101b01602363ffffff0060e086901c160160181b0190930160c81b60445260e882901c90606490fd5b6000620009ed84848462000ab5565b506001901b60001901811b1992909216911b1790565b60006200077e8383670de0b6b3a764000062000b10565b6001811b1992909216911b1790565b60028151101562000a3a576200074a565b60008160008151811062000a4a57fe5b602002602001015190506000600190505b825181101562000ab057600083828151811062000a7457fe5b6020026020010151905062000aa5816001600160a01b0316846001600160a01b03161060656200049260201b60201c565b915060010162000a5b565b505050565b62000ac66101008310606462000492565b62000aff6001821015801562000af7575062000af360ff846101000362000b7960201b620010961760201c565b8211155b606462000492565b62000ab083821c156101b462000492565b600062000b306002841015801562000af7575060ff841115606462000492565b62000b4082851115606462000492565b60006001846001901b0390506200072f62000b67868362000b8560201b620010a21760201c565b8462000bad60201b620010c61760201c565b80820390821102900390565b60008282026200077e84158062000ba557508385838162000ba257fe5b04145b600362000492565b600062000bbe821515600462000492565b81838162000bc857fe5b049392505050565b828054600181600116156101000203166002900490600052602060002090601f016020900481019282601f1062000c1357805160ff191683800117855562000c43565b8280016001018555821562000c43579182015b8281111562000c4357825182559160200191906001019062000c26565b5062000c5192915062000c55565b5090565b5b8082111562000c51576000815560010162000c56565b80516200076481620010e4565b600082601f83011262000c8a578081fd5b815162000ca162000c9b82620010b8565b62001091565b81815291506020808301908481018184028601820187101562000cc357600080fd5b60005b8481101562000cef57815162000cdc81620010e4565b8452928201929082019060010162000cc6565b505050505092915050565b600082601f83011262000d0b578081fd5b815162000d1c62000c9b82620010b8565b81815291506020808301908481018184028601820187101562000d3e57600080fd5b60005b8481101562000cef5781518452928201929082019060010162000d41565b805180151581146200076457600080fd5b600082601f83011262000d81578081fd5b81516001600160401b0381111562000d97578182fd5b602062000dad601f8301601f1916820162001091565b9250818352848183860101111562000dc457600080fd5b60005b8281101562000de457848101820151848201830152810162000dc7565b8281111562000df65760008284860101525b50505092915050565b60006020828403121562000e11578081fd5b5051919050565b60006020828403121562000e2a578081fd5b81516200077e81620010e4565b6000806000806000806000806000806101408b8d03121562000e57578586fd5b62000e638c8c62000c6c565b60208c0151909a506001600160401b038082111562000e80578788fd5b62000e8e8e838f0162000d70565b9a5060408d015191508082111562000ea4578788fd5b62000eb28e838f0162000d70565b995060608d015191508082111562000ec8578788fd5b62000ed68e838f0162000c79565b985060808d015191508082111562000eec578788fd5b5062000efb8d828e0162000cfa565b96505060a08b0151945060c08b0151935060e08b0151925062000f238c6101008d0162000c6c565b915062000f358c6101208d0162000d5f565b90509295989b9194979a5092959850565b60006020828403121562000f58578081fd5b815160ff811681146200077e578182fd5b6000815180845260208085019450808401835b838110156200084d5781518752958201959082019060010162000f7c565b901515815260200190565b60006060820185835260206060818501528186518084526080860191508288019350845b8181101562000ff15762000fde8551620010d8565b8352938301939183019160010162000fc9565b505084810360408601528551808252908201925081860190845b818110156200096f57620010208351620010d8565b855293830193918301916001016200100b565b60208101600383106200104257fe5b91905290565b90815260200190565b60008582528460208301526080604083015262001072608083018562000f69565b828103606084015262001086818562000f69565b979650505050505050565b6040518181016001600160401b0381118282101715620010b057600080fd5b604052919050565b60006001600160401b03821115620010ce578081fd5b5060209081020190565b6001600160a01b031690565b6001600160a01b03811681146200074a57600080fd5b60805160a05160c05160e0516101005160601c6101205160601c61014051610160516101805160601c6101a0516101c05160601c6101e0516102005160601c6102205160601c6102405160601c6102605160601c610280516102a0516102c0516102e051614f446200120b6000398061080352806126715250806107b2528061261052508061076f52806125af525080610735528061254e5250806124c4528061263652508061248252806125d552508061244052806125745250806123fe52806125135250806111e3525080610d5b5250806108ed525050806111bf52508061119b525080610bd6525080610bb2525080610b50525080611da5525080611de7525080611dc65250614f446000f3fe608060405234801561001057600080fd5b50600436106102de5760003560e01c80637ecebe0011610186578063a9059cbb116100e3578063d505accf11610097578063e01af92c11610071578063e01af92c1461057f578063ed24911d14610592578063f89f27ed1461059a576102de565b8063d505accf14610546578063d5c096c414610559578063dd62ed3e1461056c576102de565b8063b35056b8116100c8578063b35056b81461052e578063b7b814fc14610536578063d2946c2b1461053e576102de565b8063a9059cbb14610513578063aaabadc514610526576102de565b80638d928af81161013a57806395d89b411161011f57806395d89b41146104e55780639d2c110c146104ed578063a457c2d714610500576102de565b80638d928af8146104ca57806390193b7c146104d2576102de565b8063851c1bb31161016b578063851c1bb31461048f57806387ec6817146104a2578063893d20e8146104b5576102de565b80637ecebe00146104745780638456cb5914610487576102de565b806338fff2d01161023f57806354a844ba116101f357806370a08231116101cd57806370a082311461042957806374f3b0091461043c5780637beed2201461045d576102de565b806354a844ba146103f857806355c67628146104005780636028bfd414610408576102de565b80633e569205116102245780633e569205146103d55780633f4ba83a146103e857806347bc4d92146103f0576102de565b806338fff2d0146103ba57806339509351146103c2576102de565b80631dd746ea11610296578063313ce5671161027b578063313ce567146103885780633644e5151461039d57806338e9922e146103a5576102de565b80631dd746ea1461036057806323b872dd14610375576102de565b8063095ea7b3116102c7578063095ea7b31461032157806318160ddd146103415780631c0de05114610349576102de565b806301ec954a146102e357806306fdde031461030c575b600080fd5b6102f66102f13660046149d6565b6105a2565b6040516103039190614c56565b60405180910390f35b610314610602565b6040516103039190614d96565b61033461032f3660046146ca565b610699565b6040516103039190614c33565b6102f66106b0565b6103516106b6565b60405161030393929190614c3e565b6103686106df565b6040516103039190614bfb565b61033461038336600461461a565b610841565b6103906108b7565b6040516103039190614e7b565b6102f66108c0565b6103b86103b3366004614a93565b6108cf565b005b6102f66108eb565b6103346103d03660046146ca565b61090f565b6103b86103e3366004614aab565b61094a565b6103b8610990565b6103346109a4565b6103b86109b1565b6102f6610a05565b61041b610416366004614745565b610a0b565b604051610303929190614e07565b6102f66104373660046145c6565b610a29565b61044f61044a366004614745565b610a48565b604051610303929190614c0e565b610465610b0a565b60405161030393929190614e20565b6102f66104823660046145c6565b610b2f565b6103b8610b3a565b6102f661049d3660046147e8565b610b4c565b61041b6104b0366004614745565b610b9e565b6104bd610bb0565b6040516103039190614be7565b6104bd610bd4565b6102f66104e03660046145c6565b610bf8565b610314610c13565b6102f66104fb366004614a47565b610c74565b61033461050e3660046146ca565b610cad565b6103346105213660046146ca565b610ceb565b6104bd610cf8565b610334610d02565b6103b8610d0f565b6104bd610d59565b6103b861055436600461465a565b610d7d565b61044f610567366004614745565b610e08565b6102f661057a3660046145e2565b610e9f565b6103b861058d3660046146f5565b610edc565b6102f6610ef5565b610368610eff565b600084608001516105cf6105b4610bd4565b6001600160a01b0316336001600160a01b03161460cd6110e6565b6105e46105da6108eb565b82146101f46110e6565b6105ec6110f4565b6105f886868686611107565b9695505050505050565b60038054604080516020601f600260001961010060018816150201909516949094049384018190048102820181019092528281526060939092909183018282801561068e5780601f106106635761010080835404028352916020019161068e565b820191906000526020600020905b81548152906001019060200180831161067157829003601f168201915b505050505090505b90565b60006106a6338484611114565b5060015b92915050565b60025490565b60008060006106c361117c565b1592506106ce611199565b91506106d86111bd565b9050909192565b606060006106eb6111e1565b905060608167ffffffffffffffff8111801561070657600080fd5b50604051908082528060200260200182016040528015610730578160200160208202803683370190505b5090507f00000000000000000000000000000000000000000000000000000000000000008160008151811061076157fe5b6020026020010181815250507f00000000000000000000000000000000000000000000000000000000000000008160018151811061079b57fe5b60200260200101818152505060028211156107ef577f0000000000000000000000000000000000000000000000000000000000000000816002815181106107de57fe5b6020026020010181815250506107f8565b91506106969050565b60038211156107ef577f00000000000000000000000000000000000000000000000000000000000000008160038151811061082f57fe5b60200260200101818152505091505090565b60008061084e8533610e9f565b9050610872336001600160a01b038716148061086a5750838210155b61019e6110e6565b61087d858585611205565b336001600160a01b0386161480159061089857506000198114155b156108aa576108aa8533858403611114565b60019150505b9392505050565b60055460ff1690565b60006108ca610ef5565b905090565b6108d76112e5565b6108df6110f4565b6108e88161132b565b50565b7f000000000000000000000000000000000000000000000000000000000000000090565b3360008181526001602090815260408083206001600160a01b038716845290915281205490916106a69185906109459086610f88565b611114565b6109526112e5565b61095a6110f4565b61096c6109656111e1565b8251610f61565b6109768383611394565b925061098b83836109856113b1565b846114dc565b505050565b6109986112e5565b6109a2600061159a565b565b60006108ca60095461162b565b6109b96112e5565b6109c1611637565b6109cb600161164b565b7feff3d4d215b42bf0960be9c6d5e05c22cba4df6627a3a523e2acee733b5854c860016040516109fb9190614c33565b60405180910390a1565b60085490565b60006060610a1d88878561165d611690565b97509795505050505050565b6001600160a01b0381166000908152602081905260409020545b919050565b60608088610a576105b4610bd4565b610a626105da6108eb565b6000610a6d8561181b565b15610a9557610a7a61184a565b610a8c88610a866106b0565b8761185d565b94509050610aad565b610a9d6110f4565b610aa88a898761165d565b945090505b610ab78a82611881565b835167ffffffffffffffff81118015610acf57600080fd5b50604051908082528060200260200182016040528015610af9578160200160208202803683370190505b509250505097509795505050505050565b6000806060610b22600954610b1d6111e1565b61188b565b9296919550919350915050565b60006106aa82610bf8565b610b426112e5565b6109a2600161159a565b60007f000000000000000000000000000000000000000000000000000000000000000082604051602001610b81929190614b71565b604051602081830303815290604052805190602001209050919050565b60006060610a1d8887856119b2611690565b7f000000000000000000000000000000000000000000000000000000000000000090565b7f000000000000000000000000000000000000000000000000000000000000000090565b6001600160a01b031660009081526006602052604090205490565b60048054604080516020601f600260001961010060018816150201909516949094049384018190048102820181019092528281526060939092909183018282801561068e5780601f106106635761010080835404028352916020019161068e565b60008360800151610c866105b4610bd4565b610c916105da6108eb565b610c996110f4565b610ca4858585611a12565b95945050505050565b600080610cba3385610e9f565b9050808310610cd457610ccf33856000611114565b610ce1565b610ce13385858403611114565b5060019392505050565b60006106a6338484611205565b60006108ca611b6d565b60006108ca600954611be7565b610d176112e5565b610d1f61184a565b610d29600061164b565b7feff3d4d215b42bf0960be9c6d5e05c22cba4df6627a3a523e2acee733b5854c860006040516109fb9190614c33565b7f000000000000000000000000000000000000000000000000000000000000000090565b60007f6e71edae12b1b97f4d1f60370fef10105fa2faae0126114a169c64845d6126c9888888610dac8c610bf8565b89604051602001610dc296959493929190614c7e565b604051602081830303815290604052805190602001209050610df38882610dea878787611bf4565b886101f8611c33565b610dfe888888611114565b5050505050505050565b60608088610e176105b4610bd4565b610e226105da6108eb565b6000610e2c6110f4565b610e346106b0565b610e8657610e438a8a87611c8a565b94509050610e5c610e52611d26565b82101560cc6110e6565b610e6e6000610e69611d26565b611d2d565b610e8189610e7a611d26565b8303611d2d565b610ab7565b610e918a89876119b2565b94509050610ab78982611d2d565b6000610ea9610bd4565b6001600160a01b0316826001600160a01b03161415610ecb57506000196106aa565b610ed58383611d37565b90506106aa565b610ee46112e5565b610eec6110f4565b6108e881611d62565b60006108ca611da1565b60606108ca6113b1565b6000610f59848484855167ffffffffffffffff81118015610f2957600080fd5b50604051908082528060200260200182016040528015610f53578160200160208202803683370190505b50611e3e565b949350505050565b610f6e81831460676110e6565b5050565b6000610f828383111560016110e6565b50900390565b60008282016108b084821015836110e6565b6000610fb98460246020610fb18a8a60048461104f565b92919061104f565b955060005b835181101561102d57611023610ff16010858481518110610fdb57fe5b602002602001015161107290919063ffffffff16565b8551601084810260c00191610fb19061101390601f908b9089908110610fdb57fe5b8c90601f8881026044019061104f565b9650600101610fbe565b509495945050505050565b60006108b0838383611087565b80610f6e81611e55565b600061105c848484611ece565b506001901b60001901811b1992909216911b1790565b60006108b08383670de0b6b3a7640000611f15565b6001811b1992909216911b1790565b80820390821102900390565b60008282026108b08415806110bf5750838583816110bc57fe5b04145b60036110e6565b60006110d582151560046110e6565b8183816110de57fe5b049392505050565b81610f6e57610f6e81611f5b565b6109a26110ff61117c565b6101926110e6565b6000610f596103e6611f5b565b6001600160a01b0380841660008181526001602090815260408083209487168084529490915290819020849055517f8c5be1e5ebec7d5bd14f71427d1e84f3dd0314c0f7b2291e5b200ac8c7c3b9259061116f908590614c56565b60405180910390a3505050565b60006111866111bd565b4211806108ca57505060075460ff161590565b7f000000000000000000000000000000000000000000000000000000000000000090565b7f000000000000000000000000000000000000000000000000000000000000000090565b7f000000000000000000000000000000000000000000000000000000000000000090565b61121c6001600160a01b03841615156101986110e6565b6112336001600160a01b03831615156101996110e6565b61123e83838361098b565b6001600160a01b03831660009081526020819052604090205461126490826101a0611f85565b6001600160a01b0380851660009081526020819052604080822093909355908416815220546112939082610f88565b6001600160a01b0380841660008181526020819052604090819020939093559151908516907fddf252ad1be2c89b69c2b068fc378daa952ba7f163c4a11628f55a4df523b3ef9061116f908590614c56565b60006113146000357fffffffff0000000000000000000000000000000000000000000000000000000016610b4c565b90506108e86113238233611f9b565b6101916110e6565b61133e64e8d4a5100082101560cb6110e6565b61135467016345785d8a000082111560ca6110e6565b60088190556040517fa9ba3ffe0b6c366b81232caab38605a0699ad5398d6cce76f91ee809e322dafc90611389908390614c56565b60405180910390a150565b60006113a04284612084565b90506106aa828211156101466110e6565b606060006113bd6111e1565b905060608167ffffffffffffffff811180156113d857600080fd5b50604051908082528060200260200182016040528015611402578160200160208202803683370190505b50600954909150600061141482612090565b9050611422826000836120bd565b8360008151811061142f57fe5b602002602001018181525050611447826001836120bd565b8360018151811061145457fe5b60200260200101818152505083600214156114755782945050505050610696565b611481826002836120bd565b8360028151811061148e57fe5b60200260200101818152505083600314156114af5782945050505050610696565b6114bb826003836120bd565b836003815181106114c857fe5b602090810291909101015250909250505090565b6000805b825181101561152c5760008382815181106114f757fe5b60200260200101519050611517662386f26fc1000082101561012e6110e6565b6115218382610f88565b9250506001016114e0565b50611543670de0b6b3a764000082146101346110e6565b61155260095486868686610f9a565b6009556040517f0f3631f9dab08169d1db21c6dc5f32536fb2b0a6b9bb5330d71c52132f968be09061158b908790879087908790614e3f565b60405180910390a15050505050565b80156115ba576115b56115ab611199565b42106101936110e6565b6115cf565b6115cf6115c56111bd565b42106101a96110e6565b600780547fffffffffffffffffffffffffffffffffffffffffffffffffffffffffffffff00168215151790556040517f9e3a5e37224532dea67b89face185703738a228a6e8a23dee546960180d3be6490611389908390614c33565b60006106aa82826120fb565b6109a2611642610d02565b156101b56110e6565b61165760095482612102565b60095550565b60006060611684858561166e6113b1565b6116766106df565b61167e6106b0565b88612110565b91509150935093915050565b33301461177f576000306001600160a01b03166000366040516116b4929190614ba1565b6000604051808303816000865af19150503d80600081146116f1576040519150601f19603f3d011682016040523d82523d6000602084013e6116f6565b606091505b50509050806000811461170557fe5b60046000803e6000517fffffffff00000000000000000000000000000000000000000000000000000000167f43adbafb000000000000000000000000000000000000000000000000000000008114611761573d6000803e3d6000fd5b506020600460003e604060205260243d03602460403e601c3d016000f35b600060606117928686868663ffffffff16565b80517fffffffffffffffffffffffffffffffffffffffffffffffffffffffffffffffe082018390526343adbafb7fffffffffffffffffffffffffffffffffffffffffffffffffffffffffffffffc083015291935091506020027fffffffffffffffffffffffffffffffffffffffffffffffffffffffffffffffdc82016044820181fd5b50505050565b60008082511180156106aa575060ff8016828060200190518101906118409190614af9565b60ff161492915050565b6109a2611855610d02565b6101b66110e6565b6000606061186a836121b3565b91506118778585846121c9565b9050935093915050565b610f6e8282612278565b60008060608061189e8660046020612344565b93506118ad8660246020612344565b92508467ffffffffffffffff811180156118c657600080fd5b506040519080825280602002602001820160405280156118f0578160200160208202803683370190505b5091508467ffffffffffffffff8111801561190a57600080fd5b50604051908082528060200260200182016040528015611934578160200160208202803683370190505b50905060005b858110156119a85761195d601f6119578960448584020183612344565b90612353565b83828151811061196957fe5b602090810291909101015261198960106119578960c08584020183612344565b82828151811061199557fe5b602090810291909101015260010161193a565b5092959194509250565b600060606119dd6119c1610bb0565b6001600160a01b0316866001600160a01b0316146101486110e6565b60006060611a0487876119ee6113b1565b6119f66106df565b6119fe6106b0565b8a612368565b909890975095505050505050565b600080600080611a206123f4565b9050611a36611a2e8261162b565b6101476110e6565b6000611a4182612090565b9050611a5a82611a548a602001516123fa565b836120bd565b9350611a6d82611a548a604001516123fa565b925050506000611a80876020015161250f565b90506000611a91886040015161250f565b9050611a9d8783612695565b9650611aa98682612695565b9550600088516001811115611aba57fe5b1415611b1b57611ad6611acb610a05565b60608a01519061269d565b60608901819052611ae79083612695565b8860600181815250506000611b03888689878d606001516126cb565b9050611b0f8183612746565b955050505050506108b0565b611b29886060015182612695565b8860600181815250506000611b45888689878d60600151612752565b9050611b5181846127c8565b9050611b0f611b66611b61610a05565b6127d4565b82906127e6565b6000611b77610bd4565b6001600160a01b031663aaabadc56040518163ffffffff1660e01b815260040160206040518083038186803b158015611baf57600080fd5b505afa158015611bc3573d6000803e3d6000fd5b505050506040513d601f19601f820116820180604052508101906108ca9190614828565b60006106aa8260016120fb565b60408051604180825260808201909252606091829190602082018180368337019050509050836020820152826040820152846060820153949350505050565b6000611c3e8561283d565b9050611c54611c4e878387612859565b836110e6565b611c63428410156101b86110e6565b5050506001600160a01b039092166000908152600660205260409020805460010190555050565b60006060611c996119c1610bb0565b6000611ca484612926565b9050611cbf6000826003811115611cb757fe5b1460ce6110e6565b6060611cca8561293c565b90506060611cd66106df565b9050611ce482518251610f61565b611cee8282612952565b6060611cf86113b1565b90506000611d0682856129bb565b90506000611d158286516110a2565b9b949a509398505050505050505050565b620f424090565b610f6e8282612a2d565b6001600160a01b03918216600090815260016020908152604080832093909416825291909152205490565b611d6e60095482611038565b6009556040517f5a9e84f78f7957cb4ed7478eb0fcad35ee4ecbe2e0f298420b28a3955392573f90611389908390614c33565b60007f00000000000000000000000000000000000000000000000000000000000000007f00000000000000000000000000000000000000000000000000000000000000007f0000000000000000000000000000000000000000000000000000000000000000611e0e612ac0565b30604051602001611e23959493929190614d38565b60405160208183030381529060405280519060200120905090565b6000611e4983611045565b610ca485858585612ac4565b600281511015611e64576108e8565b600081600081518110611e7357fe5b602002602001015190506000600190505b825181101561098b576000838281518110611e9b57fe5b60200260200101519050611ec4816001600160a01b0316846001600160a01b03161060656110e6565b9150600101611e84565b611edd610100831060646110e6565b611f0660018210158015611eff5750611efb60ff8461010003611096565b8211155b60646110e6565b61098b83821c156101b46110e6565b6000611f3260028410158015611eff575060ff84111560646110e6565b611f408285111560646110e6565b6000196001841b01610ca4611f5586836110a2565b846110c6565b6108e8817f42414c0000000000000000000000000000000000000000000000000000000000612bcd565b6000611f9484841115836110e6565b5050900390565b600073ba1ba1ba1ba1ba1ba1ba1ba1ba1ba1ba1ba1ba1b611fba610bb0565b6001600160a01b031614158015611fd55750611fd583612c48565b15611ffd57611fe2610bb0565b6001600160a01b0316336001600160a01b03161490506106aa565b612005611b6d565b6001600160a01b0316639be2a8848484306040518463ffffffff1660e01b815260040161203493929190614c5f565b60206040518083038186803b15801561204c57600080fd5b505afa158015612060573d6000803e3d6000fd5b505050506040513d601f19601f82011682018060405250810190610ed59190614711565b80820390821002900390565b6000806120a08360046020612344565b905060006120b18460246020612344565b9050610f598282612cde565b6000806120d5601f6119578760448884020183612344565b905060006120ee60106119578860c08984020183612344565b90506105f8828286612d16565b1c60011690565b60006108b083836001611087565b60006060600061211f84612d80565b9050600081600281111561212f57fe5b141561215357612149888887612143610a05565b88612d96565b92509250506121a8565b600181600281111561216157fe5b141561217257612149888686612e5f565b600281600281111561218057fe5b141561219b5761214988888888612195610a05565b89612e6c565b6121a6610150611f5b565b505b965096945050505050565b6000818060200190518101906108b09190614b15565b606060006121d78385612ec5565b9050845167ffffffffffffffff811180156121f157600080fd5b5060405190808252806020026020018201604052801561221b578160200160208202803683370190505b50915060005b855181101561226f576122508287838151811061223a57fe5b602002602001015161269d90919063ffffffff16565b83828151811061225c57fe5b6020908102919091010152600101612221565b50509392505050565b61228f6001600160a01b038316151561019b6110e6565b61229b8260008361098b565b6001600160a01b0382166000908152602081905260409020546122c190826101b2611f85565b6001600160a01b0383166000908152602081905260409020556122f46122ef826122e96106b0565b90612f05565b612f13565b60006001600160a01b0316826001600160a01b03167fddf252ad1be2c89b69c2b068fc378daa952ba7f163c4a11628f55a4df523b3ef836040516123389190614c56565b60405180910390a35050565b6001901b6000190191901c1690565b60006108b08383670de0b6b3a7640000612f18565b60006060600061237784612926565b9050600181600381111561238757fe5b14156123a2576121498888888861239c610a05565b89612f5e565b60028160038111156123b057fe5b14156123ca576121498888876123c4610a05565b88612fa7565b60038160038111156123d857fe5b14156123e957612149888686612ffe565b6121a6610136611f5b565b60095490565b60007f00000000000000000000000000000000000000000000000000000000000000006001600160a01b0316826001600160a01b0316141561243e57506000610a43565b7f00000000000000000000000000000000000000000000000000000000000000006001600160a01b0316826001600160a01b0316141561248057506001610a43565b7f00000000000000000000000000000000000000000000000000000000000000006001600160a01b0316826001600160a01b031614156124c257506002610a43565b7f00000000000000000000000000000000000000000000000000000000000000006001600160a01b0316826001600160a01b0316141561250457506003610a43565b610a43610135611f5b565b60007f00000000000000000000000000000000000000000000000000000000000000006001600160a01b0316826001600160a01b0316141561257257507f0000000000000000000000000000000000000000000000000000000000000000610a43565b7f00000000000000000000000000000000000000000000000000000000000000006001600160a01b0316826001600160a01b031614156125d357507f0000000000000000000000000000000000000000000000000000000000000000610a43565b7f00000000000000000000000000000000000000000000000000000000000000006001600160a01b0316826001600160a01b0316141561263457507f0000000000000000000000000000000000000000000000000000000000000000610a43565b7f00000000000000000000000000000000000000000000000000000000000000006001600160a01b0316826001600160a01b0316141561250457507f0000000000000000000000000000000000000000000000000000000000000000610a43565b60006108b083835b60008282026126b78415806110bf5750838583816110bc57fe5b670de0b6b3a7640000815b04949350505050565b60006126ed6126e287670429d069189e000061269d565b8311156101306110e6565b60006126f98784610f88565b9050600061270788836127e6565b905060006127158887612ec5565b905060006127238383613018565b9050612738612731826127d4565b899061269d565b9a9950505050505050505050565b60006108b08383612ec5565b600061277461276985670429d069189e000061269d565b8311156101316110e6565b600061278a6127838685610f72565b86906127e6565b9050600061279885886127e6565b905060006127a68383613018565b905060006127bc82670de0b6b3a7640000610f72565b90506127388a826130b6565b60006108b083836127e6565b670de0b6b3a764000081810391100290565b60006127f582151560046110e6565b670de0b6b3a764000083026128278415806128205750670de0b6b3a764000085838161281d57fe5b04145b60056110e6565b6001836001830304018115150291505092915050565b6000612847611da1565b82604051602001610b81929190614bb1565b600061286b82516041146101b96110e6565b60208281015160408085015160608601518251600080825295019283905292939092811a916001906128a4908990859088908890614d64565b6020604051602081039080840390855afa1580156128c6573d6000803e3d6000fd5b50506040517fffffffffffffffffffffffffffffffffffffffffffffffffffffffffffffffe001519150506001600160a01b0381161580159061291a5750876001600160a01b0316816001600160a01b0316145b98975050505050505050565b6000818060200190518101906106aa9190614916565b6060818060200190518101906108b09190614931565b81518151612961908290610f61565b60005b818110156118155761299c84828151811061297b57fe5b602002602001015184838151811061298f57fe5b602002602001015161269d565b8482815181106129a857fe5b6020908102919091010152600101612964565b670de0b6b3a764000060005b8351811015612a1d57612a13612a0c8583815181106129e257fe5b60200260200101518584815181106129f657fe5b60200260200101516130ee90919063ffffffff16565b839061269d565b91506001016129c7565b506106aa600082116101376110e6565b612a396000838361098b565b612a4e6122ef82612a486106b0565b90610f88565b6001600160a01b038216600090815260208190526040902054612a719082610f88565b6001600160a01b0383166000818152602081905260408082209390935591519091907fddf252ad1be2c89b69c2b068fc378daa952ba7f163c4a11628f55a4df523b3ef90612338908590614c56565b4690565b600080856001600160a01b03166309b2760f866040518263ffffffff1660e01b8152600401612af39190614d82565b602060405180830381600087803b158015612b0d57600080fd5b505af1158015612b21573d6000803e3d6000fd5b505050506040513d601f19601f82011682018060405250810190612b45919061472d565b6040517f66a9c7d20000000000000000000000000000000000000000000000000000000081529091506001600160a01b038716906366a9c7d290612b9190849088908890600401614cb2565b600060405180830381600087803b158015612bab57600080fd5b505af1158015612bbf573d6000803e3d6000fd5b509298975050505050505050565b7f08c379a000000000000000000000000000000000000000000000000000000000600090815260206004526007602452600a808404818106603090810160081b958390069590950190829004918206850160101b01602363ffffff0060e086901c160160181b0190930160c81b60445260e882901c90606490fd5b6000612c737f38e9922e00000000000000000000000000000000000000000000000000000000610b4c565b821480612ca75750612ca47fe01af92c00000000000000000000000000000000000000000000000000000000610b4c565b82145b806106aa5750612cd67f3e56920500000000000000000000000000000000000000000000000000000000610b4c565b909114919050565b6000814210612cf65750670de0b6b3a76400006106aa565b824211612d05575060006106aa565b82820342849003610ca48183612ec5565b6000670de0b6b3a764000082101580612d2e57508284145b15612d3a5750816108b0565b81612d465750826108b0565b82841115612d67576000612d5c8385870361269d565b850391506108b09050565b6000612d758386860361269d565b850191506108b09050565b6000818060200190518101906106aa9190614844565b60006060600080612da685613187565b91509150612db88951821060646110e6565b6000612ded8a8381518110612dc957fe5b60200260200101518a8481518110612ddd57fe5b6020026020010151858b8b6131a9565b905060608a5167ffffffffffffffff81118015612e0957600080fd5b50604051908082528060200260200182016040528015612e33578160200160208202803683370190505b50905081818481518110612e4357fe5b6020908102919091010152929a92995091975050505050505050565b6000606061186a83613266565b60006060806000612e7c8561327c565b91509150612e8c82518b51610f61565b612e968289612952565b6000612ea58b8b858b8b613294565b9050612eb58282111560cf6110e6565b9a91995090975050505050505050565b6000612ed482151560046110e6565b670de0b6b3a76400008302612efc8415806128205750670de0b6b3a764000085838161281d57fe5b8281816126c257fe5b60006108b083836001611f85565b600255565b6000612f3560028410158015611eff575060ff84111560646110e6565b6000196001841b01612f4b8186111560646110e6565b610ca4612f5886856110a2565b826110c6565b60006060806000612f6e856133d2565b91509150612f7e8a518351610f61565b612f888289612952565b6000612f978b8b858b8b6133ea565b9050612eb58282101560d06110e6565b60006060600080612fb785613535565b91509150612fc98951821060646110e6565b6000612ded8a8381518110612fda57fe5b60200260200101518a8481518110612fee57fe5b6020026020010151858b8b61354c565b6000606061300b836135e2565b91506118778585846135f8565b6000670de0b6b3a76400008214156130315750816106aa565b671bc16d674ec8000082141561304b57610ed583846130b6565b673782dace9d90000082141561307b57600061306784856130b6565b905061307381826130b6565b9150506106aa565b60006130878484613688565b905060006130a161309a836127106130b6565b6001610f88565b90506130ad8282610f88565b925050506106aa565b60008282026130d08415806110bf5750838583816110bc57fe5b6001670de0b6b3a76400006001830304018115150291505092915050565b6000670de0b6b3a76400008214156131075750816106aa565b671bc16d674ec8000082141561312157610ed5838461269d565b673782dace9d90000082141561314957600061313d848561269d565b9050613073818261269d565b60006131558484613688565b9050600061316861309a836127106130b6565b90508082101561317d576000925050506106aa565b6130ad8282610f72565b6000808280602001905181019061319e91906148e1565b909590945092505050565b6000806131c0846131ba8188610f72565b906127e6565b90506131d96709b6e64a8ec600008210156101326110e6565b60006131f76131f0670de0b6b3a764000089612ec5565b8390613018565b9050600061320e613207836127d4565b8a9061269d565b9050600061322561321e8a6127d4565b83906130b6565b905060006132338383610f72565b9050600061324a613243896127d4565b84906130b6565b90506132568282610f88565b9c9b505050505050505050505050565b6000818060200190518101906108b091906148b5565b606060008280602001905181019061319e919061485f565b60006060845167ffffffffffffffff811180156132b057600080fd5b506040519080825280602002602001820160405280156132da578160200160208202803683370190505b5090506000805b885181101561339f5761333a8982815181106132f957fe5b60200260200101516131ba89848151811061331057fe5b60200260200101518c858151811061332457fe5b6020026020010151610f7290919063ffffffff16565b83828151811061334657fe5b60200260200101818152505061339561338e89838151811061336457fe5b602002602001015185848151811061337857fe5b60200260200101516130b690919063ffffffff16565b8390610f88565b91506001016132e1565b5060006133b089898986868a61379e565b90506133c56133be826127d4565b87906130b6565b9998505050505050505050565b606060008280602001905181019061319e919061497e565b60006060845167ffffffffffffffff8111801561340657600080fd5b50604051908082528060200260200182016040528015613430578160200160208202803683370190505b5090506000805b88518110156134de5761349689828151811061344f57fe5b602002602001015161349089848151811061346657fe5b60200260200101518c858151811061347a57fe5b6020026020010151610f8890919063ffffffff16565b90612ec5565b8382815181106134a257fe5b6020026020010181815250506134d461338e8983815181106134c057fe5b602002602001015185848151811061223a57fe5b9150600101613437565b5060006134ef89898986868a6138c3565b90506000670de0b6b3a76400008211613509576000612738565b612738877ffffffffffffffffffffffffffffffffffffffffffffffffff21f494c589c0000840161269d565b6000808280602001905181019061319e91906149b8565b60008061355d846131ba8188610f88565b90506135766729a2241af62c00008211156101336110e6565b600061358d6131f0670de0b6b3a7640000896127e6565b905060006135ad6135a683670de0b6b3a7640000610f72565b8a906130b6565b905060006135bd61321e8a6127d4565b905060006135cb8383610f72565b9050600061324a6135db896127d4565b84906127e6565b6000818060200190518101906108b0919061499c565b6060600061360683856127e6565b9050845167ffffffffffffffff8111801561362057600080fd5b5060405190808252806020026020018201604052801561364a578160200160208202803683370190505b50915060005b855181101561226f576136698287838151811061337857fe5b83828151811061367557fe5b6020908102919091010152600101613650565b60008161369e5750670de0b6b3a76400006106aa565b826136ab575060006106aa565b6136bb60ff84901c1560066110e6565b826136e1770bce5086492111aea88f4bb1ca6bcf584181ea8059f76532841060076110e6565b826000670c7d713b49da0000831380156137025750670f43fc2c04ee000083125b15613739576000613712846139cf565b9050670de0b6b3a764000080820784020583670de0b6b3a764000083050201915050613747565b8161374384613b06565b0290505b670de0b6b3a764000090056137957ffffffffffffffffffffffffffffffffffffffffffffffffdc702bd3a30fc0000821280159061378e575068070c1cc73b00c800008213155b60086110e6565b6105f881613ea6565b670de0b6b3a764000060005b87518110156138b85760008582815181106137c157fe5b602002602001015185111561382b5760006137ea6137de876127d4565b8b858151811061223a57fe5b905060006137fe828a868151811061332457fe5b9050600061381561380e886127d4565b83906127e6565b90506138218382610f88565b9350505050613850565b86828151811061383757fe5b60200260200101519050806000141561385057506138b0565b60006138798a848151811061386157fe5b6020026020010151613490848d878151811061332457fe5b90506138ab6138a48a858151811061388d57fe5b6020026020010151836130ee90919063ffffffff16565b859061269d565b935050505b6001016137aa565b509695505050505050565b670de0b6b3a764000060005b87518110156138b8576000848683815181106138e757fe5b60200260200101511115613960576000670de0b6b3a7640000861161390d576000613927565b613927670de0b6b3a764000087038b858151811061223a57fe5b905060006139458661393f848c888151811061332457fe5b906130b6565b9050613957818a868151811061332457fe5b92505050613985565b86828151811061396c57fe5b60200260200101519050806000141561398557506139c7565b60006139ae8a848151811061399657fe5b6020026020010151613490848d878151811061347a57fe5b90506139c26138a48a858151811061388d57fe5b935050505b6001016138cf565b670de0b6b3a7640000026000806ec097ce7bc90715b34b9f1000000000808401907fffffffffffffffffffffffffffffffffff3f68318436f8ea4cb460f00000000085010281613a1b57fe5b05905060006ec097ce7bc90715b34b9f100000000082800205905081806ec097ce7bc90715b34b9f100000000081840205915060038205016ec097ce7bc90715b34b9f100000000082840205915060058205016ec097ce7bc90715b34b9f100000000082840205915060078205016ec097ce7bc90715b34b9f100000000082840205915060098205016ec097ce7bc90715b34b9f1000000000828402059150600b8205016ec097ce7bc90715b34b9f1000000000828402059150600d8205016ec097ce7bc90715b34b9f1000000000828402059150600f826002919005919091010295945050505050565b6000670de0b6b3a7640000821215613b4357613b39826ec097ce7bc90715b34b9f100000000081613b3357fe5b05613b06565b6000039050610a43565b60007e1600ef3172e58d2e933ec884fde10064c63b5372d805e203c00000000000008312613b9457770195e54c5dd42177f53a27172fa9ec630262827000000000830592506806f05b59d3b2000000015b73011798004d755d3c8bc8e03204cf44619e0000008312613bcc576b1425982cf597cd205cef7380830592506803782dace9d9000000015b606492830292026e01855144814a7ff805980ff00840008312613c14576e01855144814a7ff805980ff008400068056bc75e2d63100000840205925068ad78ebc5ac62000000015b6b02df0ab5a80a22c61ab5a7008312613c4f576b02df0ab5a80a22c61ab5a70068056bc75e2d6310000084020592506856bc75e2d631000000015b693f1fce3da636ea5cf8508312613c8657693f1fce3da636ea5cf85068056bc75e2d631000008402059250682b5e3af16b18800000015b690127fa27722cc06cc5e28312613cbd57690127fa27722cc06cc5e268056bc75e2d6310000084020592506815af1d78b58c400000015b68280e60114edb805d038312613cf25768280e60114edb805d0368056bc75e2d631000008402059250680ad78ebc5ac6200000015b680ebc5fb417461211108312613d1d57680ebc5fb4174612111068056bc75e2d631000009384020592015b6808f00f760a4b2db55d8312613d52576808f00f760a4b2db55d68056bc75e2d6310000084020592506802b5e3af16b1880000015b6806f5f17757889379378312613d87576806f5f177578893793768056bc75e2d63100000840205925068015af1d78b58c40000015b6806248f33704b2866038312613dbb576806248f33704b28660368056bc75e2d63100000840205925067ad78ebc5ac620000015b6805c548670b9510e7ac8312613def576805c548670b9510e7ac68056bc75e2d6310000084020592506756bc75e2d6310000015b600068056bc75e2d63100000840168056bc75e2d631000008086030281613e1257fe5b059050600068056bc75e2d63100000828002059050818068056bc75e2d63100000818402059150600382050168056bc75e2d63100000828402059150600582050168056bc75e2d63100000828402059150600782050168056bc75e2d63100000828402059150600982050168056bc75e2d63100000828402059150600b820501600202606485820105979650505050505050565b6000613eeb7ffffffffffffffffffffffffffffffffffffffffffffffffdc702bd3a30fc00008312158015613ee4575068070c1cc73b00c800008313155b60096110e6565b6000821215613f1f57613f0082600003613ea6565b6ec097ce7bc90715b34b9f100000000081613f1757fe5b059050610a43565b60006806f05b59d3b20000008312613f7557507ffffffffffffffffffffffffffffffffffffffffffffffff90fa4a62c4e00000090910190770195e54c5dd42177f53a27172fa9ec630262827000000000613fc1565b6803782dace9d90000008312613fbd57507ffffffffffffffffffffffffffffffffffffffffffffffffc87d2531627000000909101906b1425982cf597cd205cef7380613fc1565b5060015b6064929092029168056bc75e2d6310000068ad78ebc5ac620000008412614027577fffffffffffffffffffffffffffffffffffffffffffffff5287143a539e0000009093019268056bc75e2d631000006e01855144814a7ff805980ff008400082020590505b6856bc75e2d6310000008412614079577fffffffffffffffffffffffffffffffffffffffffffffffa9438a1d29cf0000009093019268056bc75e2d631000006b02df0ab5a80a22c61ab5a70082020590505b682b5e3af16b1880000084126140c9577fffffffffffffffffffffffffffffffffffffffffffffffd4a1c50e94e78000009093019268056bc75e2d63100000693f1fce3da636ea5cf85082020590505b6815af1d78b58c4000008412614119577fffffffffffffffffffffffffffffffffffffffffffffffea50e2874a73c000009093019268056bc75e2d63100000690127fa27722cc06cc5e282020590505b680ad78ebc5ac62000008412614168577ffffffffffffffffffffffffffffffffffffffffffffffff5287143a539e000009093019268056bc75e2d6310000068280e60114edb805d0382020590505b68056bc75e2d6310000084126141b7577ffffffffffffffffffffffffffffffffffffffffffffffffa9438a1d29cf000009093019268056bc75e2d63100000680ebc5fb4174612111082020590505b6802b5e3af16b18800008412614206577ffffffffffffffffffffffffffffffffffffffffffffffffd4a1c50e94e7800009093019268056bc75e2d631000006808f00f760a4b2db55d82020590505b68015af1d78b58c400008412614255577ffffffffffffffffffffffffffffffffffffffffffffffffea50e2874a73c00009093019268056bc75e2d631000006806f5f177578893793782020590505b68056bc75e2d631000008481019085906002908280020505918201919050600368056bc75e2d631000008783020505918201919050600468056bc75e2d631000008783020505918201919050600568056bc75e2d631000008783020505918201919050600668056bc75e2d631000008783020505918201919050600768056bc75e2d631000008783020505918201919050600868056bc75e2d631000008783020505918201919050600968056bc75e2d631000008783020505918201919050600a68056bc75e2d631000008783020505918201919050600b68056bc75e2d631000008783020505918201919050600c68056bc75e2d631000008783020505918201919050606468056bc75e2d63100000848402058502059695505050505050565b80356106aa81614edc565b600082601f830112614391578081fd5b81356143a461439f82614eb0565b614e89565b8181529150602080830190848101818402860182018710156143c557600080fd5b60005b848110156143e4578135845292820192908201906001016143c8565b505050505092915050565b600082601f8301126143ff578081fd5b815161440d61439f82614eb0565b81815291506020808301908481018184028601820187101561442e57600080fd5b60005b848110156143e457815184529282019290820190600101614431565b600082601f83011261445d578081fd5b813567ffffffffffffffff811115614473578182fd5b6144a460207fffffffffffffffffffffffffffffffffffffffffffffffffffffffffffffffe0601f84011601614e89565b91508082528360208285010111156144bb57600080fd5b8060208401602084013760009082016020015292915050565b8051600381106106aa57600080fd5b8051600481106106aa57600080fd5b8035600281106106aa57600080fd5b6000610120808385031215614514578182fd5b61451d81614e89565b91505061452a83836144f2565b81526145398360208401614376565b602082015261454b8360408401614376565b6040820152606082013560608201526080820135608082015260a082013560a082015261457b8360c08401614376565b60c082015261458d8360e08401614376565b60e08201526101008083013567ffffffffffffffff8111156145ae57600080fd5b6145ba8582860161444d565b82840152505092915050565b6000602082840312156145d7578081fd5b81356108b081614edc565b600080604083850312156145f4578081fd5b82356145ff81614edc565b9150602083013561460f81614edc565b809150509250929050565b60008060006060848603121561462e578081fd5b833561463981614edc565b9250602084013561464981614edc565b929592945050506040919091013590565b600080600080600080600060e0888a031215614674578283fd5b873561467f81614edc565b9650602088013561468f81614edc565b9550604088013594506060880135935060808801356146ad81614eff565b9699959850939692959460a0840135945060c09093013592915050565b600080604083850312156146dc578182fd5b82356146e781614edc565b946020939093013593505050565b600060208284031215614706578081fd5b81356108b081614ef1565b600060208284031215614722578081fd5b81516108b081614ef1565b60006020828403121561473e578081fd5b5051919050565b600080600080600080600060e0888a03121561475f578081fd5b87359650602088013561477181614edc565b9550604088013561478181614edc565b9450606088013567ffffffffffffffff8082111561479d578283fd5b6147a98b838c01614381565b955060808a0135945060a08a0135935060c08a01359150808211156147cc578283fd5b506147d98a828b0161444d565b91505092959891949750929550565b6000602082840312156147f9578081fd5b81357fffffffff00000000000000000000000000000000000000000000000000000000811681146108b0578182fd5b600060208284031215614839578081fd5b81516108b081614edc565b600060208284031215614855578081fd5b6108b083836144d4565b600080600060608486031215614873578081fd5b61487d85856144d4565b9250602084015167ffffffffffffffff811115614898578182fd5b6148a4868287016143ef565b925050604084015190509250925092565b600080604083850312156148c7578182fd5b6148d184846144d4565b9150602083015190509250929050565b6000806000606084860312156148f5578081fd5b6148ff85856144d4565b925060208401519150604084015190509250925092565b600060208284031215614927578081fd5b6108b083836144e3565b60008060408385031215614943578182fd5b61494d84846144e3565b9150602083015167ffffffffffffffff811115614968578182fd5b614974858286016143ef565b9150509250929050565b600080600060608486031215614992578081fd5b61487d85856144e3565b600080604083850312156149ae578182fd5b6148d184846144e3565b6000806000606084860312156149cc578081fd5b6148ff85856144e3565b600080600080608085870312156149eb578182fd5b843567ffffffffffffffff80821115614a02578384fd5b614a0e88838901614501565b95506020870135915080821115614a23578384fd5b50614a3087828801614381565b949794965050505060408301359260600135919050565b600080600060608486031215614a5b578081fd5b833567ffffffffffffffff811115614a71578182fd5b614a7d86828701614501565b9660208601359650604090950135949350505050565b600060208284031215614aa4578081fd5b5035919050565b600080600060608486031215614abf578081fd5b8335925060208401359150604084013567ffffffffffffffff811115614ae3578182fd5b614aef86828701614381565b9150509250925092565b600060208284031215614b0a578081fd5b81516108b081614eff565b60008060408385031215614b27578182fd5b8251614b3281614eff565b6020939093015192949293505050565b6000815180845260208085019450808401835b8381101561102d57815187529582019590820190600101614b55565b9182527fffffffff0000000000000000000000000000000000000000000000000000000016602082015260240190565b6000828483379101908152919050565b7f190100000000000000000000000000000000000000000000000000000000000081526002810192909252602282015260420190565b6001600160a01b0391909116815260200190565b6000602082526108b06020830184614b42565b600060408252614c216040830185614b42565b8281036020840152610ca48185614b42565b901515815260200190565b92151583526020830191909152604082015260600190565b90815260200190565b9283526001600160a01b03918216602084015216604082015260600190565b9586526001600160a01b0394851660208701529290931660408501526060840152608083019190915260a082015260c00190565b60006060820185835260206060818501528186518084526080860191508288019350845b81811015614cfa57614ce88551614ed0565b83529383019391830191600101614cd6565b505084810360408601528551808252908201925081860190845b81811015612bbf57614d268351614ed0565b85529383019391830191600101614d14565b9485526020850193909352604084019190915260608301526001600160a01b0316608082015260a00190565b93845260ff9290921660208401526040830152606082015260800190565b6020810160038310614d9057fe5b91905290565b6000602080835283518082850152825b81811015614dc257858101830151858201604001528201614da6565b81811115614dd35783604083870101525b50601f017fffffffffffffffffffffffffffffffffffffffffffffffffffffffffffffffe016929092016040019392505050565b600083825260406020830152610f596040830184614b42565b600084825283602083015260606040830152610ca46060830184614b42565b600085825284602083015260806040830152614e5e6080830185614b42565b8281036060840152614e708185614b42565b979650505050505050565b60ff91909116815260200190565b60405181810167ffffffffffffffff81118282101715614ea857600080fd5b604052919050565b600067ffffffffffffffff821115614ec6578081fd5b5060209081020190565b6001600160a01b031690565b6001600160a01b03811681146108e857600080fd5b80151581146108e857600080fd5b60ff811681146108e857600080fdfea2646970667358221220c2d7f35fc038c67b54dad1329bf7abff8824c1e2a910397657eefdf60f958db364736f6c63430007010033",
  "devdoc": {
    "details": "Weighted Pool with mutable weights, designed to support V2 Liquidity Bootstrapping.",
    "kind": "dev",
    "methods": {
      "DOMAIN_SEPARATOR()": {
        "details": "See {IERC20Permit-DOMAIN_SEPARATOR}."
      },
      "allowance(address,address)": {
        "details": "Override to grant the Vault infinite allowance, causing for Pool Tokens to not require approval. This is sound as the Vault already provides authorization mechanisms when initiation token transfers, which this contract inherits."
      },
      "approve(address,uint256)": {
        "details": "See {IERC20-approve}. Requirements: - `spender` cannot be the zero address."
      },
      "balanceOf(address)": {
        "details": "See {IERC20-balanceOf}."
      },
      "decimals()": {
        "details": "Returns the number of decimals used to get its user representation. For example, if `decimals` equals `2`, a balance of `505` tokens should be displayed to a user as `5,05` (`505 / 10 ** 2`). Tokens usually opt for a value of 18, imitating the relationship between Ether and Wei. This is the value {ERC20} uses, unless {_setupDecimals} is called. NOTE: This information is only used for _display_ purposes: it in no way affects any of the arithmetic of the contract, including {IERC20-balanceOf} and {IERC20-transfer}."
      },
      "decreaseAllowance(address,uint256)": {
        "details": "Override to allow decreasing allowance by more than the current amount (setting it to zero)"
      },
      "disableRecoveryMode()": {
        "details": "Protocol fees are not paid while in Recovery Mode, so it should only remain active for as long as strictly necessary."
      },
      "enableRecoveryMode()": {
        "details": "Does not otherwise affect pool operations (beyond deferring payment of protocol fees), though some pools may perform certain operations in a \"safer\" manner that is less likely to fail, in an attempt to keep the pool running, even in a pathological state. Unlike the Pause operation, which is only available during a short window after factory deployment, Recovery Mode can always be enabled."
      },
      "getActionId(bytes4)": {
        "details": "Returns the action identifier associated with the external function described by `selector`."
      },
      "getDomainSeparator()": {
        "details": "Returns the EIP712 domain separator."
      },
      "getGradualWeightUpdateParams()": {
        "details": "Return start time, end time, and endWeights as an array. Current weights should be retrieved via `getNormalizedWeights()`."
      },
      "getPausedState()": {
        "details": "Returns the current contract pause status, as well as the end times of the Pause Window and Buffer Period."
      },
      "getProtocolFeesCollector()": {
        "details": "This is immutable, and retrieved from the Vault on construction. (It is also immutable in the Vault.)"
      },
      "getScalingFactors()": {
        "details": "Returns the scaling factors of each of the Pool's tokens. This is an implementation detail that is typically not relevant for outside parties, but which might be useful for some types of Pools."
      },
      "getSwapFeePercentage()": {
        "details": "This is stored separately, as there is no more room in `_poolState`."
      },
      "increaseAllowance(address,uint256)": {
        "details": "Atomically increases the allowance granted to `spender` by the caller. This is an alternative to {approve} that can be used as a mitigation for problems described in {IERC20-approve}. Emits an {Approval} event indicating the updated allowance. Requirements: - `spender` cannot be the zero address."
      },
      "name()": {
        "details": "Returns the name of the token."
      },
      "nonces(address)": {
        "details": "See {IERC20Permit-nonces}."
      },
      "onExitPool(bytes32,address,address,uint256[],uint256,uint256,bytes)": {
        "details": "This function can only be called from the Vault, from `exitPool`."
      },
      "onJoinPool(bytes32,address,address,uint256[],uint256,uint256,bytes)": {
        "details": "This function can only be called from the Vault, from `joinPool`."
      },
      "pause()": {
        "details": "This is a permissioned function that will only work during the Pause Window set during pool factory deployment (see `TemporarilyPausable`)."
      },
      "permit(address,address,uint256,uint256,uint8,bytes32,bytes32)": {
        "details": "See {IERC20Permit-permit}."
      },
      "queryExit(bytes32,address,address,uint256[],uint256,uint256,bytes)": {
        "details": "Returns the amount of BPT that would be burned from `sender` if the `onExitPool` hook were called by the Vault with the same arguments, along with the number of tokens `recipient` would receive. This function is not meant to be called directly, but rather from a helper contract that fetches current Vault data, such as the protocol swap fee percentage and Pool balances. Like `IVault.queryBatchSwap`, this function is not view due to internal implementation details: the caller must explicitly use eth_call instead of eth_sendTransaction."
      },
      "queryJoin(bytes32,address,address,uint256[],uint256,uint256,bytes)": {
        "details": "Returns the amount of BPT that would be granted to `recipient` if the `onJoinPool` hook were called by the Vault with the same arguments, along with the number of tokens `sender` would have to supply. This function is not meant to be called directly, but rather from a helper contract that fetches current Vault data, such as the protocol swap fee percentage and Pool balances. Like `IVault.queryBatchSwap`, this function is not view due to internal implementation details: the caller must explicitly use eth_call instead of eth_sendTransaction."
      },
      "setSwapFeePercentage(uint256)": {
        "details": "This is a permissioned function, and disabled if the pool is paused. The swap fee must be within the bounds set by MIN_SWAP_FEE_PERCENTAGE/MAX_SWAP_FEE_PERCENTAGE. Emits the SwapFeePercentageChanged event."
      },
      "symbol()": {
        "details": "Returns the symbol of the token, usually a shorter version of the name."
      },
      "totalSupply()": {
        "details": "See {IERC20-totalSupply}. The total supply should only be read using this function Can be overridden by derived contracts to store the total supply in a different way (e.g. packed with other storage values)."
      },
      "transfer(address,uint256)": {
        "details": "See {IERC20-transfer}. Requirements: - `recipient` cannot be the zero address. - the caller must have a balance of at least `amount`."
      },
      "transferFrom(address,address,uint256)": {
        "details": "Override to allow for 'infinite allowance' and let the token owner use `transferFrom` with no self-allowance"
      },
      "unpause()": {
        "details": "This is a permissioned function that will only work on a paused pool within the Buffer Period set during pool factory deployment (see `TemporarilyPausable`). Note that any paused pools will automatically unpause after the Buffer Period expires."
      },
      "updateWeightsGradually(uint256,uint256,uint256[])": {
        "details": "Weights will change from the current weights to the given endWeights, over startTime to endTime."
      }
    },
    "version": 1
  },
  "userdoc": {
    "kind": "user",
    "methods": {
      "disableRecoveryMode()": {
        "notice": "Disable recovery mode, which disables the special safe exit path for LPs."
      },
      "enableRecoveryMode()": {
        "notice": "Enable recovery mode, which enables a special safe exit path for LPs."
      },
      "getNormalizedWeights()": {
        "notice": "Return the current token weights."
      },
      "getPoolId()": {
        "notice": "Return the pool id."
      },
      "getProtocolFeesCollector()": {
        "notice": "Return the ProtocolFeesCollector contract."
      },
      "getSwapEnabled()": {
        "notice": "Return whether swaps are enabled or not for the given pool."
      },
      "getSwapFeePercentage()": {
        "notice": "Return the current value of the swap fee percentage."
      },
      "inRecoveryMode()": {
        "notice": "Returns whether the pool is in Recovery Mode."
      },
      "onExitPool(bytes32,address,address,uint256[],uint256,uint256,bytes)": {
        "notice": "Vault hook for removing liquidity from a pool."
      },
      "onJoinPool(bytes32,address,address,uint256[],uint256,uint256,bytes)": {
        "notice": "Vault hook for adding liquidity to a pool (including the first time, \"initializing\" the pool)."
      },
      "pause()": {
        "notice": "Pause the pool: an emergency action which disables all pool functions."
      },
      "queryExit(bytes32,address,address,uint256[],uint256,uint256,bytes)": {
        "notice": "\"Dry run\" `onExitPool`."
      },
      "queryJoin(bytes32,address,address,uint256[],uint256,uint256,bytes)": {
        "notice": "\"Dry run\" `onJoinPool`."
      },
      "setSwapEnabled(bool)": {
        "notice": "Pause/unpause trading."
      },
      "setSwapFeePercentage(uint256)": {
        "notice": "Set the swap fee percentage."
      },
      "unpause()": {
        "notice": "Reverse a `pause` operation, and restore a pool to normal functionality."
      },
      "updateWeightsGradually(uint256,uint256,uint256[])": {
        "notice": "Schedule a gradual weight change."
      }
    },
    "version": 1
  },
  "storageLayout": {
    "storage": [
      {
        "astId": 9756,
        "contract": "contracts/lbp/LiquidityBootstrappingPool.sol:LiquidityBootstrappingPool",
        "label": "_balances",
        "offset": 0,
        "slot": "0",
        "type": "t_mapping(t_address,t_uint256)"
      },
      {
        "astId": 9762,
        "contract": "contracts/lbp/LiquidityBootstrappingPool.sol:LiquidityBootstrappingPool",
        "label": "_allowances",
        "offset": 0,
        "slot": "1",
        "type": "t_mapping(t_address,t_mapping(t_address,t_uint256))"
      },
      {
        "astId": 9764,
        "contract": "contracts/lbp/LiquidityBootstrappingPool.sol:LiquidityBootstrappingPool",
        "label": "_totalSupply",
        "offset": 0,
        "slot": "2",
        "type": "t_uint256"
      },
      {
        "astId": 9766,
        "contract": "contracts/lbp/LiquidityBootstrappingPool.sol:LiquidityBootstrappingPool",
        "label": "_name",
        "offset": 0,
        "slot": "3",
        "type": "t_string_storage"
      },
      {
        "astId": 9768,
        "contract": "contracts/lbp/LiquidityBootstrappingPool.sol:LiquidityBootstrappingPool",
        "label": "_symbol",
        "offset": 0,
        "slot": "4",
        "type": "t_string_storage"
      },
      {
        "astId": 9770,
        "contract": "contracts/lbp/LiquidityBootstrappingPool.sol:LiquidityBootstrappingPool",
        "label": "_decimals",
        "offset": 0,
        "slot": "5",
        "type": "t_uint8"
      },
      {
        "astId": 6143,
        "contract": "contracts/lbp/LiquidityBootstrappingPool.sol:LiquidityBootstrappingPool",
        "label": "_nextNonce",
        "offset": 0,
        "slot": "6",
        "type": "t_mapping(t_address,t_uint256)"
      },
      {
        "astId": 6925,
        "contract": "contracts/lbp/LiquidityBootstrappingPool.sol:LiquidityBootstrappingPool",
        "label": "_paused",
        "offset": 0,
        "slot": "7",
        "type": "t_bool"
      },
      {
        "astId": 24711,
        "contract": "contracts/lbp/LiquidityBootstrappingPool.sol:LiquidityBootstrappingPool",
        "label": "_swapFeePercentage",
        "offset": 0,
        "slot": "8",
        "type": "t_uint256"
      },
      {
        "astId": 24729,
        "contract": "contracts/lbp/LiquidityBootstrappingPool.sol:LiquidityBootstrappingPool",
        "label": "_poolState",
        "offset": 0,
        "slot": "9",
        "type": "t_bytes32"
      }
    ],
    "types": {
      "t_address": {
        "encoding": "inplace",
        "label": "address",
        "numberOfBytes": "20"
      },
      "t_bool": {
        "encoding": "inplace",
        "label": "bool",
        "numberOfBytes": "1"
      },
      "t_bytes32": {
        "encoding": "inplace",
        "label": "bytes32",
        "numberOfBytes": "32"
      },
      "t_mapping(t_address,t_mapping(t_address,t_uint256))": {
        "encoding": "mapping",
        "key": "t_address",
        "label": "mapping(address => mapping(address => uint256))",
        "numberOfBytes": "32",
        "value": "t_mapping(t_address,t_uint256)"
      },
      "t_mapping(t_address,t_uint256)": {
        "encoding": "mapping",
        "key": "t_address",
        "label": "mapping(address => uint256)",
        "numberOfBytes": "32",
        "value": "t_uint256"
      },
      "t_string_storage": {
        "encoding": "bytes",
        "label": "string",
        "numberOfBytes": "32"
      },
      "t_uint256": {
        "encoding": "inplace",
        "label": "uint256",
        "numberOfBytes": "32"
      },
      "t_uint8": {
        "encoding": "inplace",
        "label": "uint8",
        "numberOfBytes": "1"
      }
    }
  }
}